:100000000C9463000C948B000C948B000C948B006C
:100010000C948B000C948B000C948B000C94C306F6
:100020000C948B000C948B000C948B000C948B0024
:100030000C948B000C948B000C948B000C948B0014
:100040000C941F070C948B000C948B000C948B0069
:100050000C948B000C948B000C948B000C948B00F4
:100060000C948B000C948B000000000024002700EF
:100070002A000000000023002600290000000008DC
:10008000000201000003040700000000000000005F
:10009000010204081020408001020408102001021F
:1000A0000408102000000000250028002B00040494
:1000B0000404040404040202020202020303030310
:1000C000030302008E0811241FBECFEFD8E0DEBF6D
:1000D000CDBF11E0A0E0B1E0E0E4F5E102C00590A1
:1000E0000D92AE39B107D9F721E0AEE9B1E001C018
:1000F0001D92A43DB207E1F710E0C3E6D0E004C0D2
:100100002197FE010E94980AC236D107C9F70E94C2
:1001100069070C949E0A0C940000AF92BF92CF9294
:10012000DF92EF92FF920F931F93CF93DF936C01B7
:100130007B018B01040F151FEB015E01AE18BF0898
:10014000C017D10759F06991D601ED91FC9101904A
:10015000F081E02DC6010995892B79F7C501DF9162
:10016000CF911F910F91FF90EF90DF90CF90BF90B4
:10017000AF900895833081F028F4813099F0823077
:10018000A9F008958730A9F08830C9F08430B1F41F
:10019000809180008F7D03C0809180008F77809355
:1001A0008000089584B58F7784BD089584B58F7DD0
:1001B000FBCF8091B0008F778093B000089580913D
:1001C000B0008F7DF9CFCF93DF93282F30E0F90176
:1001D000E458FF4F8491F901E057FF4FD491F901A2
:1001E000E255FF4FC491CC23A1F081110E94BA00C7
:1001F000EC2FF0E0EE0FFF1FEE58FF4FA591B491EA
:10020000EC91ED2381E090E009F480E0DF91CF9163
:10021000089580E090E0FACF1F93CF93DF93282FCB
:1002200030E0F901E458FF4F8491F901E057FF4FA6
:10023000D491F901E255FF4FC491CC23A9F0162FB8
:1002400081110E94BA00EC2FF0E0EE0FFF1FEC5579
:10025000FF4FA591B4918FB7F894EC91111108C09C
:10026000D095DE23DC938FBFDF91CF911F9108954E
:10027000DE2BF8CF9091000189130BC0E2ECF0E087
:10028000E4919FEF90930001E13049F028F0E230D3
:1002900061F060E00C940C0110926E00FACF909126
:1002A0006F009D7F90936F00F4CF909170009D7FC1
:1002B0009093700091E09093B0009091B100987F7E
:1002C00094609093B1001092B300E3CFCF93DF938B
:1002D00090E0FC01E057FF4F249182559F4FFC01B5
:1002E00084918823D1F090E0880F991FFC01E85990
:1002F000FF4FA591B491FC01EC55FF4FC591D491EE
:1003000061110EC09FB7F8948C91E22FE0958E2377
:100310008C932881E223E8839FBFDF91CF910895DA
:100320008FB7F894EC91E22BEC938FBFF6CF3FB7E9
:10033000F89480919F019091A001A091A101B091AA
:10034000A20126B5A89B05C02F3F19F00196A11D5B
:10035000B11D3FBFBA2FA92F982F8827BC01CD010F
:10036000620F711D811D911D42E0660F771F881F6E
:10037000991F4A95D1F708958F929F92AF92BF929D
:10038000CF92DF92EF92FF924B015C010E949701A6
:100390006B017C010E9497016C197D098E099F09F0
:1003A000683E734081059105A8F321E0821A910807
:1003B000A108B10888EEC80E83E0D81EE11CF11C2C
:1003C00081149104A104B10429F7FF90EF90DF900C
:1003D000CF90BF90AF909F908F900895089590E038
:1003E00080E00895682F8DE00C940C0180E48093E8
:1003F0007C0080917A00806480937A0080917A00FA
:1004000086FDFCCF8091780060917900762F682F6F
:10041000072E000C880B990B0E944F0920E030E05A
:1004200040E85AE30E94040A20E030E04AEF53E437
:100430000E94040A0895FB0101900020E9F731971A
:10044000AF01461B570B0C948D008F929F92AF9279
:10045000BF920F931F93CF93DF93CDB7DEB7A197D2
:100460000FB6F894DEBF0FBECDBF19A2423008F41C
:100470004AE08E010F5D1F4F842E912CB12CA12CD0
:10048000A50194010E94760AE62FB901CA01EA305B
:1004900004F5E05DD801EE938D01232B242B252B51
:1004A00079F790E080E0109729F0BD018CEB91E0A6
:1004B0000E941B02A1960FB6F894DEBF0FBECDBFFF
:1004C000DF91CF911F910F91BF90AF909F908F9030
:1004D0000895E95CDFCF0F931F93CF93DF93EC0177
:1004E0000E941B028C016DE071E0CE010E941B0294
:1004F000800F911FDF91CF911F910F910895CF939E
:10050000DF93EC0160E08E810E940C0161E08E813E
:100510000E940C0160E08E810E940C018BE891E04A
:100520000197F1F7DF91CF910895CF92DF92EF928B
:10053000FF920F931F93CF93DF936C017C0187E0B1
:10054000E80EF11CD0E0C0E0062F10E0B8010C2E40
:1005500002C0759567950A94E2F76170F701819181
:100560007F010E940C012196C430D10579F7C601A4
:10057000DF91CF911F910F91FF90EF90DF90CF907F
:100580000C947F02CF92DF92EF92FF920F931F9312
:10059000CF93DF93EC01F62E642F8C810E940C0127
:1005A0008D818F3F19F060E00E940C010F2D10E04B
:1005B0008F8584FF25C06E0187E0C80ED11CF12C09
:1005C000E12CB8010E2C02C0759567950A94E2F7EC
:1005D0006170F60181916F010E940C01FFEFEF1A2B
:1005E000FF0A88E0E816F10461F7CE01DF91CF91B0
:1005F0001F910F91FF90EF90DF90CF900C947F02AE
:10060000B80184E0759567958A95E1F7CE010E945F
:1006100095026F2DCE01DF91CF911F910F91FF9029
:10062000EF90DF90CF900C94950240E061E08CEB6E
:1006300091E00E94C2028BE39FE10197F1F70895D8
:100640004F925F926F927F92AF92BF92CF92DF9262
:10065000EF92FF920F931F93CF938C010E9415038B
:10066000B8018CEB91E00E946B0244244A94542C14
:10067000320144E0A42E47E4B42E52ECC52E50E0E3
:10068000D52E0DEB10E06FE9E62E60E0F62E88E047
:100690000E94E300892B09F0D6C0809100018F30C1
:1006A00029F5F601C491C7FDBCC061E08FE00E944E
:1006B0006601CC2309F488C0C23009F099C080914A
:1006C000B100887F85608093B1008DE88093B3008E
:1006D0004092B0015092B1016092B2017092B301A8
:1006E000809170008260809370009BC08F3F09F002
:1006F00098C08FE080930001F601C491CF3F09F4C8
:1007000090C0C13019F150F0C23009F43CC0C7FDAF
:1007100088C061E08FE00E946601CECF14BC15BC9A
:1007200084B5826084BD85B5816085BDF801849102
:10073000E82FF0E0EE0FFF1FEC55FF4F85919491ED
:10074000F70184918093AF01C0E0AFCF1092800099
:100750001092810080918100886080938100809157
:100760008100816080938100F8018491E82FF0E09E
:10077000EE0FFF1FEC55FF4F85919491F701849187
:100780008093AE0192CF1092B0001092B100809190
:10079000B00082608093B0008091B100816080934E
:1007A000B100F8018491E82FF0E0EE0FFF1FEC5547
:1007B000FF4F859194919093AD018093AC01F70127
:1007C00084918093AB0171CF85B5887F846085BDAE
:1007D00086E487BD4092B8015092B9016092BA0197
:1007E0007092BB0180916E00826080936E0019C090
:1007F000C13009F580918100887F816080938100FC
:10080000B0928900A09288004092B4015092B50144
:100810006092B6017092B70180916F008260809300
:100820006F0068EC70E080E090E00E94BC018FE017
:100830000E943A012CCFC23021F0C111F2CF84E0E6
:10084000C8CF84E043CFCF911F910F91FF90EF90DD
:10085000DF90CF90BF90AF907F906F905F904F9060
:100860000C941503CF93DF93EC010E941503BE0196
:100870008CEB91E00E946B026EEE72E080E090E003
:100880000E94BC01CEE10E9415038AE00E94E300B1
:10089000892B09F0CB5F8BE00E94E300892B09F0E4
:1008A000C550C93108F4C9E1C53608F0C4E66C2F5B
:1008B00070E090E080E04AE00E9425026AEF70E07C
:1008C00080E090E00E94BC0188E00E94E300892B58
:1008D000D1F20E9415038C2F90E0DF91CF91089503
:1008E0008F929F92AF92BF92CF92DF92EF92FF9240
:1008F0008FB7F8948090A7019090A801A090A901CB
:10090000B090AA018FBF0E94F6016B017C010E948A
:10091000150360E171E08CEB91E00E946B022FB750
:10092000F8948091A7019091A801A091A901B0919C
:10093000AA012FBF88199909AA09BB09803D9740D0
:10094000A105B10580F40E94F6019B01AC01C7012D
:10095000B6010E94190987FF04C080E00E94F201DD
:10096000DECF81E0FBCFFF90EF90DF90CF90BF9084
:10097000AF909F908F900895CF93DF93823029F4AA
:100980009091CB0198609093CB018093CF0110920E
:10099000D00180E48093D10180E18093D20180E591
:1009A0008093D30161E08091C0010E946601809133
:1009B000C1018F3F19F061E00E94660161E0809102
:1009C000C2010E946601CCEBD1E09E012C5B31405C
:1009D0008091CB0184FD0BC084E090E02196281724
:1009E000390744F461E08E810E946601EECF88E011
:1009F00090E0F4CF8BE39DE00197F1F760E0809108
:100A0000C0010E940C0160E08091C2010E940C01B3
:100A10008091C1018F3F19F060E00E940C0160914C
:100A2000CB0164FD3DC063E08CEB91E00E94950238
:100A3000CBE4D6E4CE010197F1F763E08CEB91E0D3
:100A40000E9495022197F1F763E08CEB91E00E9400
:100A5000950283E592E00197F1F762E08CEB91E07B
:100A60000E9495026091CB01606240E08CEB91E0C6
:100A70000E94C20284E08093CC0140E06CE08CEBE9
:100A800091E00E94C2020E94150382E08093CD0192
:100A900040E066E08CEB91E0DF91CF910C94C202D4
:100AA000606240E08CEB91E00E94C2028BE496E42D
:100AB0000197F1F76091CB01606240E08CEB91E02F
:100AC0000E94C20283E592E00197F1F76091CB01A9
:100AD000606240E08CEB91E00E94C202C3CF41E033
:100AE0000E94C20281E090E008958F929F92AF929F
:100AF000BF92CF92DF92EF92FF920E9415030E9465
:100B0000F6016B017C01AC019B010E94710A69E155
:100B100071E081111AC046015701E894B7F82FEF30
:100B20003FEF4FE75FE7C501B4010E94710A8111F1
:100B300024C02FEF3FEF4FE75FE7C501B4010E94EC
:100B400019091816D4F46DE171E08CEB91E00E9464
:100B50001B0265E271E08CEB91E00E941B026CE2EB
:100B600071E080E090E0FF90EF90DF90CF90BF9039
:100B7000AF909F908F900C94BC012FEF3FEF4FE709
:100B80005FE4C701B6010E94FF0918161CF461E278
:100B900071E0DBCF2FEF3FEF4FE75FECC701B6010E
:100BA0000E94190987FDF3CF20E030E0A901C701B9
:100BB000B6010E94190987FF0AC041E06DE28CEB83
:100BC00091E00E94C202F7FAF094F7F8F0942AE05C
:100BD00037ED43EA5BE3C701B6010E94AD084B0164
:100BE0005C010E941E096B017C010E944D099B0162
:100BF000AC01C501B4010E94AC084B015C014AE0A4
:100C0000C701B6010E94250241E06EE28CEB91E043
:100C10000E94C20220E030E040E251E4C501B4018C
:100C20000E94040A4B015C010E941E096B01F12C19
:100C3000E12C4AE0C701B6010E942502C701B601B6
:100C40000E944D099B01AC01C501B4010E94AC0892
:100C500020E030E040E251E40E94040A0E941E09B4
:100C600090E080E04AE00E94250273CF4F925F92AD
:100C70006F927F928F929F92AF92BF92CF92DF92AC
:100C8000EF92FF926B017C010E9415030E94F60116
:100C9000A70196010E941909882309F467C00E94E0
:100CA000F6019B01AC01C701B6010E94FF091816AD
:100CB0000CF04CC00E94F6019B01AC01C701B601CB
:100CC0000E94FF0918160CF051C00E9475058FB7DD
:100CD000F8944090A7015090A8016090A9017090ED
:100CE000AA018FBF0E94F60120E030E040E85FE3F8
:100CF0000E94AD084B015C012FB7F8948091A701C9
:100D00009091A801A091A901B091AA012FBF8419C7
:100D10009509A609B709883E9340A105B10550F68B
:100D20000E94F6019B01AC01C501B4010E941909A2
:100D3000181654F080E00E94F20164E670E080E052
:100D400090E00E94BC01D8CF81E0F5CF80E00E9406
:100D5000F2010E94F6019B01AC01C701B6010E949D
:100D6000190987FF03C00E947505F3CFFF90EF902C
:100D7000DF90CF90BF90AF909F908F907F906F90BB
:100D80005F904F9008951F920F920FB60F9211240B
:100D90002F933F934F935F936F937F938F939F9383
:100DA000AF93BF93EF93FF938091B0019091B10106
:100DB000A091B201B091B301892B8A2B8B2BD1F179
:100DC0009091AB01E091AC01F091AD018081892758
:100DD00080838091B0019091B101A091B201B09156
:100DE000B301181619061A061B069CF48091B0016F
:100DF0009091B101A091B201B091B3010197A10905
:100E0000B1098093B0019093B101A093B201B09366
:100E1000B301FF91EF91BF91AF919F918F917F911E
:100E20006F915F914F913F912F910F900FBE0F9057
:100E30001F901895809100010E943A01EACF1F92FD
:100E40000F920FB60F9211242F933F938F939F937E
:100E5000AF93BF938091A7019091A801A091A901A0
:100E6000B091AA0130919E0123E0230F2D3758F550
:100E70000196A11DB11D20939E018093A70190931F
:100E8000A801A093A901B093AA0180919F0190911C
:100E9000A001A091A101B091A2010196A11DB11DD7
:100EA00080939F019093A001A093A101B093A20110
:100EB000BF91AF919F918F913F912F910F900FBE56
:100EC0000F901F90189526E8230F0296A11DB11DC3
:100ED000D2CF789484B5826084BD84B5816084BDAE
:100EE00085B5826085BD85B5816085BD80916E00C8
:100EF000816080936E0010928100809181008260F9
:100F00008093810080918100816080938100809135
:100F100080008160809380008091B1008460809324
:100F2000B1008091B00081608093B00080917A0020
:100F3000846080937A0080917A00826080937A0046
:100F400080917A00816080937A0080917A00806835
:100F500080937A001092C10060E08EE00E946601EA
:100F600061E08DE00E94660161E08CE00E94660114
:100F700060E089E00E94660160E08AE00E9466010C
:100F800060E08BE00E94660160E088E00E946601FC
:100F900061E08FE00E94660182E00E94BC040E9432
:100FA000150368E271E08CEB91E00E941B028AE07D
:100FB0000E94E300892B31F10E94150362E371E086
:100FC0008CEB91E00E941B0268EE73E080E090E001
:100FD0000E94BC010E941503C0E5DBE416E481E039
:100FE0008093A3011093A401D093A501C093A601FF
:100FF00089E00E94E300019799F188E691E00E9460
:101000002003F6CF8BE00E94E300892B81F20E943F
:1010100015036DE371E08CEB91E00E941B0268EE1A
:1010200073E080E090E00E94BC010E9415030E94E2
:10103000150384E491E00E943204182F8DE491E0BE
:101040000E943204D82F85E591E00E943204C82F17
:101050006EE571E08CEB91E00E946B0280E0C0CF06
:1010600061E771E08CEB91E00E946B0281E00E94ED
:10107000F2010E94F60120E030E040E752E40E94D5
:10108000190987FDF6CF80E00E94F2010E94150346
:1010900061E08CE00E940C016DE771E08CEB91E067
:1010A0000E946B02C0E0D0E087E891E00E9420033C
:1010B0006091A40170E090E080E00E944D090E94E0
:1010C00036060E9470048DE891E00E942003609132
:1010D000A50170E090E080E00E944D090E94360674
:1010E0000E94700483E991E00E9420036091A601B0
:1010F00070E090E080E00E944D090E9436060E9458
:10110000700489E991E00E94200360E08CE00E9475
:101110000C01209749F20E940000C6CFECEBF1E0F1
:101120001382128285E091E09183808382E0848340
:101130008FEF858383E0868384E0878385E08087E3
:1011400086E0818787E08287138614861586168657
:10115000178681E00C94BC045058BB27AA270E9434
:10116000C4080C94C5090E94B70938F00E94BE0952
:1011700020F039F49F3F19F426F40C94B4090EF4CE
:10118000E095E7FB0C94AE09E92F0E94D60958F3CD
:10119000BA17620773078407950720F079F4A6F55C
:1011A0000C94F8090EF4E0950B2EBA2FA02D0B012C
:1011B000B90190010C01CA01A0011124FF27591B9C
:1011C00099F0593F50F4503E68F11A16F040A22FA2
:1011D000232F342F4427585FF3CF46953795279513
:1011E000A795F0405395C9F77EF41F16BA0B620B12
:1011F000730B840BBAF09150A1F0FF0FBB1F661F59
:10120000771F881FC2F70EC0BA0F621F731F841F9B
:1012100048F4879577956795B795F7959E3F08F0C1
:10122000B0CF9395880F08F09927EE0F9795879583
:1012300008950E948A0908F481E008950E94DE0959
:1012400088F09F5798F0B92F9927B751B0F0E1F087
:10125000660F771F881F991F1AF0BA95C9F714C037
:10126000B13091F00E94F809B1E008950C94F809AA
:10127000672F782F8827B85F39F0B93FCCF3869570
:1012800077956795B395D9F73EF4909580957095CD
:1012900061957F4F8F4F9F4F0895E89409C097FB4A
:1012A0003EF490958095709561957F4F8F4F9F4F3D
:1012B0009923A9F0F92F96E9BB279395F695879581
:1012C00077956795B795F111F8CFFAF4BB0F11F444
:1012D00060FF1BC06F5F7F4F8F4F9F4F16C08823EB
:1012E00011F096E911C0772321F09EE8872F762F21
:1012F00005C0662371F096E8862F70E060E02AF062
:101300009A95660F771F881FDAF7880F969587954D
:1013100097F90895990F0008550FAA0BE0E8FEEF22
:1013200016161706E807F907C0F012161306E407A9
:10133000F50798F0621B730B840B950B39F40A26A2
:1013400061F0232B242B252B21F408950A2609F480
:10135000A140A6958FEF811D811D089597F99F6784
:1013600080E870E060E008959FEF80EC089500242D
:101370000A941616170618060906089500240A94FA
:1013800012161306140605060895092E0394000C80
:1013900011F4882352F0BB0F40F4BF2B11F460FF0F
:1013A00004C06F5F7F4F8F4F9F4F089557FD905838
:1013B000440F551F59F05F3F71F04795880F97FB19
:1013C000991F61F09F3F79F08795089512161306D3
:1013D0001406551FF2CF4695F1DF08C01616170602
:1013E0001806991FF1CF8695710561050894089537
:1013F000E894BB2766277727CB0197F908950E94C9
:101400008A0908F48FEF08950E94170A0C94C50901
:101410000E94B70938F00E94BE0920F0952311F010
:101420000C94AE090C94B40911240C94F9090E948F
:10143000D60970F3959FC1F3950F50E0551F629F39
:10144000F001729FBB27F00DB11D639FAA27F00D1D
:10145000B11DAA1F649F6627B00DA11D661F829F44
:101460002227B00DA11D621F739FB00DA11D621F29
:10147000839FA00D611D221F749F3327A00D611D46
:10148000231F849F600D211D822F762F6A2F112428
:101490009F5750409AF0F1F088234AF0EE0FFF1F5B
:1014A000BB1F661F771F881F91505040A9F79E3FB2
:1014B000510580F00C94AE090C94F9095F3FE4F3F8
:1014C000983ED4F3869577956795B795F795E79508
:1014D0009F5FC1F7FE2B880F911D9695879597F911
:1014E00008950E948A09880B990B0895A1E21A2E8B
:1014F000AA1BBB1BFD010DC0AA1FBB1FEE1FFF1FB8
:10150000A217B307E407F50720F0A21BB30BE40B07
:10151000F50B661F771F881F991F1A9469F760954E
:101520007095809590959B01AC01BD01CF01089508
:10153000EE0FFF1F0590F491E02D0994F894FFCF72
:10154000FF000000006F058D00EF01EE010D0A00A5
:1015500044657363616E736F006E616E00696E66E1
:10156000006F7666002A43006D616E75616C206FB6
:1015700075206175746F6D617469636F006D616E64
:1015800075616C007072696D6569726F0073656773
:10159000756E646F00746572636569726F00696E61
:1015A000696369616E646F0073656D206167756161
:1015B0000045737175656E74616E646F00496E6984
:1015C0006369616E646F00696E67203100696E67E0
:0E15D000203200696E6720330046494D00004E
:00000001FF
